:020000020000FC
:020000006DC4CD
:02002C006DC0A5
:100068000FE00093B80008950DD0000F12D0012FB3
:1000780010D01DD0089506D0000F01600AD010D00E
:1000880016D008950F9304EA0093BC0016D00F9180
:1000980008950093BB0004E80093BC000ED00895B7
:1000A80004E80093BC0009D00091BB0008950F93A9
:1000B80004E90093BC000F9108950091BC0007FF6C
:1000C800FCCF08950F930CE204B903E50CBD0F9122
:1000D80008950F930EBD0DB507FFFDCF0F9108953D
:1000E800EF93FF93EE27FF273496F1F7FF91EF91F7
:1000F80008950F9308E7F4DF0A95E9F70F9108953B
:100108000F930FB70F931F93FF93EF9309D01FD04F
:1001180030D0EF91FF911F910F910FBF0F9118955C
:1001280000915F01039500935F0109F401D00895E0
:1001380073D40881003021F400915E01088302C065
:10014800002708833AD40895B1E0A0E408951F93E6
:1001580013E00D91BEDF1A95E1F702D01F910895C3
:100168000091580100950E946D002A982A9A2A98B1
:10017800089500915801000F003011F4E5DF01E007
:1001880000935801089507E800937A0008950091B4
:100198007A00006400937A0000917A0006FDFCCF93
:1001A8000091790008950FD00023E9F77FD10BD093
:1001B80094D1102F0023D1F30530A9F391DF03D098
:1001C8000117A1F7089507E256DF0F73073311F4FB
:1001D8000AE018C0002700E600937C00D8DF13D09F
:1001E800003011F02BD00AC001E600937C00CFDF6D
:1001F8000AD005950595059501950FD0002311F0B6
:100208002AD03DD00895013030F0083C10F400E0C9
:1002180003C008E001C008EF08951F9310915D0125
:100228000F3F19F0013041F41395112319F022F012
:100238001850FBCF05E045D11F9108951F931091E9
:100248005D01100F103018F0103408F402C005E0FA
:1002580038D11F9108951F93109160011F3F69F4D1
:10026800DBD3C00F1881177020915E012770121719
:1002780021F0103011F005E024D11F9108951F934B
:10028800109160011F3FC9F710915E0114FD16C05F
:10029800C3D3C00F288127701770211779F0C01BAE
:1002A800E6EDF8E02591222349F0C20F3881377036
:1002B800311711F0C21BF6CF05E003D11F91089545
:1002C8000A3021F006D075D074D002C013D0ACD358
:1002D800089518D1A1D310915D0110936101209167
:1002E8005E012F3009F420E02883100F10935D0180
:1002F80026D0089500916001002341F410915E0119
:100308001F3039F013FF05C014FF04D00095009387
:10031800600108950F9320915E01277000E4D1E0F9
:10032800C0E018811770121729F41881186014FD9D
:1003380011271883C3950A95A1F70F9108956CD3D7
:10034800109160011F3F11F409D004C008810030EA
:1003580009F40FE000935E010883089503D00BD0E1
:100368001ED00895188100915D01C01B00916101A4
:10037800C00F088108950770101769F02881086078
:10038800201721F407700061101741F00881177FCA
:10039800077F101709F40027077F088308953CD3C7
:1003A80000915E0100611881103011F014FF0F7088
:1003B800089500915D010F93109160011F3F11F4A2
:1003C80005D00CD00F9100935D010895E6EDF8E09B
:1003D80020915E01277033271FD3089505910023CC
:1003E80079F0C0935D0119DF29DF053009F4002792
:1003F800C00F18811F70C01B121709F43395EECF78
:1004080031FD01D008950CD015D00F3F31F01127E0
:1004180018834395C50F5527F7CFC09361010895F9
:10042800D1E0C0E000916101C00F30915D01442727
:1004380055270895C0935D01E6EDF8E00591002386
:1004480099F0EBDEFBDE0530C9F3C00F18811F7091
:10045800423028F0C31719F4C01B0FEF05C0C01BAA
:10046800121709F4502FEACF089500770077007724
:10047800015F005F005F015000500050013C010126
:1004880001003C3F4750595F6A7700FE778EFE00B7
:100498000F930EE204B90E9455020E945A020F916E
:1004A8000895D1E0C3E600E008830895DF93CF9371
:1004B8000F93D1E0C4E600E008830F91CF91DF915C
:1004C8000895DF93CF930F93D1E0C4E60881039595
:1004D80008830F91CF91DF910895D1E0C4E6288178
:1004E800222311F040D0E2DF0895D1E0C3E600E016
:1004F8000883089500E400938000089500E00093C5
:1005080080000895DF93CF930F93D1E0C3E608816D
:10051800003031F40E947E020E94F1030E948202A0
:100528000F91CF91DF910895FF93EF93DF93CF93CE
:100538000F931F93F4E0E2E715910E947E020E9458
:10054800D6020E94010415911E3FB9F70E9482024B
:100558000E9479020E94E8031F910F91CF91DF91C9
:10056800EF91FF910895FF93EF93DF93CF930F934C
:100578001F93F4E0E4E915910E94D6020E947E02DE
:100588000E94010415911E3FB9F70E9482020E9441
:1005980079020E94E8031F910F91CF91DF91EF91AB
:1005A800FF9108951E3821F40E9441030C944003E2
:1005B8001F3721F40E944A030C944003173721F493
:1005C8000E9453030C9440031A3621F40E945C03E2
:1005D8000C944003143621F40E9465030C944003E4
:1005E8001F3521F40E946E030C944003193521F441
:1005F8000E9477030C944003103521F40E94800375
:100608000C9440031B3421F40E9489030C9440038A
:10061800173421F40E9492030C9440031F3321F4F1
:100628000E949B030C9440031C3321F40E94A403F2
:100638000C944003153321F40E94AD030C9440033D
:10064800123321F40E94B6030C9440031F3221F4A4
:100658000E94BF030C9440031D3221F40E94C8037A
:100668000C944003103021F40E9482020C94400341
:10067800183111F40E94D103089500E00093890015
:100688000EE8009388000E94DA03089500E00093C2
:1006980089000FE7009388000E94DA03089500E0BC
:1006A8000093890007E7009388000E94DA03089501
:1006B80000E0009389000AE6009388000E94DA03AC
:1006C800089500E00093890004E6009388000E94E2
:1006D800DA03089500E0009389000FE5009388008D
:1006E8000E94DA03089500E00093890009E5009369
:1006F80088000E94DA03089500E00093890000E56D
:10070800009388000E94DA03089500E000938900AE
:100718000BE4009388000E94DA03089500E0009338
:10072800890007E4009388000E94DA03089500E036
:10073800009389000FE3009388000E94E103089565
:1007480000E0009389000CE3009388000E94E10315
:10075800089500E00093890005E3009388000E9453
:10076800E103089500E00093890002E30093880004
:100778000E94E103089500E0009389000FE20093CE
:1007880088000E94E103089500E0009389000DE2CB
:10079800009388000E94E103089500E00093890017
:1007A80007E1009388000E94E103089500E00093A8
:1007B800850005E400938400089500E00093850017
:1007C80000E000938400089500E00093890006E4A7
:1007D800009388000E94DA0308953F932F931F9394
:1007E80039E020E010E01A9571F42A9559F43A9509
:1007F80041F41F912F913F9108953F932F931F9399
:100808003AE020E010E01A95F1F72A95D9F73A95E1
:10081800C1F71F912F913F910895000C060E060A0B
:10082800040D0209080A020E0209070B000C020B4C
:10083800090DFFFF04060606060606060406010162
:100848000101020204060105050101020406010175
:100858000505050204060601010105050403030355
:100868000303040504030404040404050404040540
:1008780005050505030C0309020B020A010A070D09
:10088800030E000D0909050E000B0B0CFFFF0404F5
:10089800040401010101040303010102020204032B
:1008A8000101050505050403010605030303040307
:1008B80001060603010304030101060301030403FF
:1008C800030101010103040403030303030308F8FC
:1008D800FF010000F7DBC4DB0CD055DC17D034DC9B
:1008E80033D04FD02CDDD4DD789467D05CDCE8DCE5
:1008F800FCCF0CE00093810000E00093890006E43F
:100908000093880002E000936F0008950F931F93EF
:10091800EF93FF9306D010D0FF91EF911F910F91A5
:10092800089501E0009358010027009360010093A7
:100938005D0100935F010895F1E0E0E0002710E415
:1009480001931A95E9F708950F931F9308E012E2AF
:1009580028E03CE30DD01F910F9108950F931F934A
:1009680008E01CE728E036E903D01F910F910895AD
:100978000093590110935A0120935B0130935C0155
:1009880008950F93CF93DF93EF93FF9307D00DD084
:10099800FF91EF91DF91CF910F910895D1E0C0E0E1
:1009A800F0915901E0915A01089505910F3F21F006
:1009B800C00F05910993F9CF08950F931F932F93B3
:1009C8003F934F93CF93DF93EF93FF930BD00FD0C9
:1009D800FF91EF91DF91CF914F913F912F911F910F
:1009E8000F910895D1E0C0E0F1E0E0E4089508E057
:1009F80006D01193219331930A95D1F708950F9357
:100A080048E0099107951795079527950795379514
:100A18004A95B9F70F9108951F93D1E0C0E010915E
:100A28005D01C10F1F910895D1E0C0E0F0915B0115
:100A3800E0915C0122272395059119911770011700
:100A4800D1F310915D0113951C1729F410915E01E3
:100A58001770101781F3203428F066DD57DF03D0B4
:100A680090DF6DDC089500915A01023211F06CDFBD
:060A780001C074DF0895C7
:00000001FF
